{
	"data": {
		"bytecode": {
			"linkReferences": {},
			"object": "608060405234801561001057600080fd5b506000600160006101000a81548160ff0219169083151502179055506103468061003b6000396000f3fe6080604052600436106100705760003560e01c80631ec6b60a1161004e5780631ec6b60a146100d7578063d53e177514610104578063f17d1a561461012f578063fab2f86b1461018057610070565b80630242f3511461007557806312065fe01461007f5780631bbef399146100aa575b600080fd5b61007d6101ad565b005b34801561008b57600080fd5b506100946101be565b6040518082815260200191505060405180910390f35b3480156100b657600080fd5b506100bf6101c6565b60405180821515815260200191505060405180910390f35b3480156100e357600080fd5b506100ec6101d9565b60405180821515815260200191505060405180910390f35b34801561011057600080fd5b50610119610249565b6040518082815260200191505060405180910390f35b34801561013b57600080fd5b5061017e6004803603602081101561015257600080fd5b81019080803573ffffffffffffffffffffffffffffffffffffffff16906020019092919050505061024f565b005b34801561018c57600080fd5b506101956102a0565b60405180821515815260200191505060405180910390f35b346000808282540192505081905550565b600047905090565b600160009054906101000a900460ff1681565b600060018060006101000a81548160ff0219169083151502179055507f84d66542381393079134898f2436f7ba19b5fab5b4ae13da6b78e7454395661d33604051808273ffffffffffffffffffffffffffffffffffffffff16815260200191505060405180910390a16001905090565b60005481565b8073ffffffffffffffffffffffffffffffffffffffff166108fc6102716101be565b9081150290604051600060405180830381858888f1935050505015801561029c573d6000803e3d6000fd5b5050565b600080600160006101000a81548160ff0219169083151502179055507fd027f2ec970e91ce28ac9b4d8c78f89288e3b6029357e79cbd81578f250aa4a133604051808273ffffffffffffffffffffffffffffffffffffffff16815260200191505060405180910390a1600190509056fea26469706673582212209e10885f70864dbd3eb5af1740942d51d0670e7d5eab4f1fe0fdad79d107df9664736f6c63430007050033",
			"opcodes": "PUSH1 0x80 PUSH1 0x40 MSTORE CALLVALUE DUP1 ISZERO PUSH2 0x10 JUMPI PUSH1 0x0 DUP1 REVERT JUMPDEST POP PUSH1 0x0 PUSH1 0x1 PUSH1 0x0 PUSH2 0x100 EXP DUP2 SLOAD DUP2 PUSH1 0xFF MUL NOT AND SWAP1 DUP4 ISZERO ISZERO MUL OR SWAP1 SSTORE POP PUSH2 0x346 DUP1 PUSH2 0x3B PUSH1 0x0 CODECOPY PUSH1 0x0 RETURN INVALID PUSH1 0x80 PUSH1 0x40 MSTORE PUSH1 0x4 CALLDATASIZE LT PUSH2 0x70 JUMPI PUSH1 0x0 CALLDATALOAD PUSH1 0xE0 SHR DUP1 PUSH4 0x1EC6B60A GT PUSH2 0x4E JUMPI DUP1 PUSH4 0x1EC6B60A EQ PUSH2 0xD7 JUMPI DUP1 PUSH4 0xD53E1775 EQ PUSH2 0x104 JUMPI DUP1 PUSH4 0xF17D1A56 EQ PUSH2 0x12F JUMPI DUP1 PUSH4 0xFAB2F86B EQ PUSH2 0x180 JUMPI PUSH2 0x70 JUMP JUMPDEST DUP1 PUSH4 0x242F351 EQ PUSH2 0x75 JUMPI DUP1 PUSH4 0x12065FE0 EQ PUSH2 0x7F JUMPI DUP1 PUSH4 0x1BBEF399 EQ PUSH2 0xAA JUMPI JUMPDEST PUSH1 0x0 DUP1 REVERT JUMPDEST PUSH2 0x7D PUSH2 0x1AD JUMP JUMPDEST STOP JUMPDEST CALLVALUE DUP1 ISZERO PUSH2 0x8B JUMPI PUSH1 0x0 DUP1 REVERT JUMPDEST POP PUSH2 0x94 PUSH2 0x1BE JUMP JUMPDEST PUSH1 0x40 MLOAD DUP1 DUP3 DUP2 MSTORE PUSH1 0x20 ADD SWAP2 POP POP PUSH1 0x40 MLOAD DUP1 SWAP2 SUB SWAP1 RETURN JUMPDEST CALLVALUE DUP1 ISZERO PUSH2 0xB6 JUMPI PUSH1 0x0 DUP1 REVERT JUMPDEST POP PUSH2 0xBF PUSH2 0x1C6 JUMP JUMPDEST PUSH1 0x40 MLOAD DUP1 DUP3 ISZERO ISZERO DUP2 MSTORE PUSH1 0x20 ADD SWAP2 POP POP PUSH1 0x40 MLOAD DUP1 SWAP2 SUB SWAP1 RETURN JUMPDEST CALLVALUE DUP1 ISZERO PUSH2 0xE3 JUMPI PUSH1 0x0 DUP1 REVERT JUMPDEST POP PUSH2 0xEC PUSH2 0x1D9 JUMP JUMPDEST PUSH1 0x40 MLOAD DUP1 DUP3 ISZERO ISZERO DUP2 MSTORE PUSH1 0x20 ADD SWAP2 POP POP PUSH1 0x40 MLOAD DUP1 SWAP2 SUB SWAP1 RETURN JUMPDEST CALLVALUE DUP1 ISZERO PUSH2 0x110 JUMPI PUSH1 0x0 DUP1 REVERT JUMPDEST POP PUSH2 0x119 PUSH2 0x249 JUMP JUMPDEST PUSH1 0x40 MLOAD DUP1 DUP3 DUP2 MSTORE PUSH1 0x20 ADD SWAP2 POP POP PUSH1 0x40 MLOAD DUP1 SWAP2 SUB SWAP1 RETURN JUMPDEST CALLVALUE DUP1 ISZERO PUSH2 0x13B JUMPI PUSH1 0x0 DUP1 REVERT JUMPDEST POP PUSH2 0x17E PUSH1 0x4 DUP1 CALLDATASIZE SUB PUSH1 0x20 DUP2 LT ISZERO PUSH2 0x152 JUMPI PUSH1 0x0 DUP1 REVERT JUMPDEST DUP2 ADD SWAP1 DUP1 DUP1 CALLDATALOAD PUSH20 0xFFFFFFFFFFFFFFFFFFFFFFFFFFFFFFFFFFFFFFFF AND SWAP1 PUSH1 0x20 ADD SWAP1 SWAP3 SWAP2 SWAP1 POP POP POP PUSH2 0x24F JUMP JUMPDEST STOP JUMPDEST CALLVALUE DUP1 ISZERO PUSH2 0x18C JUMPI PUSH1 0x0 DUP1 REVERT JUMPDEST POP PUSH2 0x195 PUSH2 0x2A0 JUMP JUMPDEST PUSH1 0x40 MLOAD DUP1 DUP3 ISZERO ISZERO DUP2 MSTORE PUSH1 0x20 ADD SWAP2 POP POP PUSH1 0x40 MLOAD DUP1 SWAP2 SUB SWAP1 RETURN JUMPDEST CALLVALUE PUSH1 0x0 DUP1 DUP3 DUP3 SLOAD ADD SWAP3 POP POP DUP2 SWAP1 SSTORE POP JUMP JUMPDEST PUSH1 0x0 SELFBALANCE SWAP1 POP SWAP1 JUMP JUMPDEST PUSH1 0x1 PUSH1 0x0 SWAP1 SLOAD SWAP1 PUSH2 0x100 EXP SWAP1 DIV PUSH1 0xFF AND DUP2 JUMP JUMPDEST PUSH1 0x0 PUSH1 0x1 DUP1 PUSH1 0x0 PUSH2 0x100 EXP DUP2 SLOAD DUP2 PUSH1 0xFF MUL NOT AND SWAP1 DUP4 ISZERO ISZERO MUL OR SWAP1 SSTORE POP PUSH32 0x84D66542381393079134898F2436F7BA19B5FAB5B4AE13DA6B78E7454395661D CALLER PUSH1 0x40 MLOAD DUP1 DUP3 PUSH20 0xFFFFFFFFFFFFFFFFFFFFFFFFFFFFFFFFFFFFFFFF AND DUP2 MSTORE PUSH1 0x20 ADD SWAP2 POP POP PUSH1 0x40 MLOAD DUP1 SWAP2 SUB SWAP1 LOG1 PUSH1 0x1 SWAP1 POP SWAP1 JUMP JUMPDEST PUSH1 0x0 SLOAD DUP2 JUMP JUMPDEST DUP1 PUSH20 0xFFFFFFFFFFFFFFFFFFFFFFFFFFFFFFFFFFFFFFFF AND PUSH2 0x8FC PUSH2 0x271 PUSH2 0x1BE JUMP JUMPDEST SWAP1 DUP2 ISZERO MUL SWAP1 PUSH1 0x40 MLOAD PUSH1 0x0 PUSH1 0x40 MLOAD DUP1 DUP4 SUB DUP2 DUP6 DUP9 DUP9 CALL SWAP4 POP POP POP POP ISZERO DUP1 ISZERO PUSH2 0x29C JUMPI RETURNDATASIZE PUSH1 0x0 DUP1 RETURNDATACOPY RETURNDATASIZE PUSH1 0x0 REVERT JUMPDEST POP POP JUMP JUMPDEST PUSH1 0x0 DUP1 PUSH1 0x1 PUSH1 0x0 PUSH2 0x100 EXP DUP2 SLOAD DUP2 PUSH1 0xFF MUL NOT AND SWAP1 DUP4 ISZERO ISZERO MUL OR SWAP1 SSTORE POP PUSH32 0xD027F2EC970E91CE28AC9B4D8C78F89288E3B6029357E79CBD81578F250AA4A1 CALLER PUSH1 0x40 MLOAD DUP1 DUP3 PUSH20 0xFFFFFFFFFFFFFFFFFFFFFFFFFFFFFFFFFFFFFFFF AND DUP2 MSTORE PUSH1 0x20 ADD SWAP2 POP POP PUSH1 0x40 MLOAD DUP1 SWAP2 SUB SWAP1 LOG1 PUSH1 0x1 SWAP1 POP SWAP1 JUMP INVALID LOG2 PUSH5 0x6970667358 0x22 SLT KECCAK256 SWAP15 LT DUP9 0x5F PUSH17 0x864DBD3EB5AF1740942D51D0670E7D5EAB 0x4F 0x1F 0xE0 REVERT 0xAD PUSH26 0xD107DF9664736F6C634300070500330000000000000000000000 "
		},
		"gasEstimates": {
			"creation": {
				"codeDepositCost": "167600",
				"executionCost": "21081",
				"totalCost": "188681"
			},
			"external": {
				"addVoteTo(address)": "infinite",
				"balancedReceived()": "1027",
				"getBalance()": "238",
				"getVote()": "20953",
				"isVoting()": "1092",
				"startVoting()": "22152",
				"stopVoting()": "22218"
			}
		},
		"methodIdentifiers": {
			"addVoteTo(address)": "f17d1a56",
			"balancedReceived()": "d53e1775",
			"getBalance()": "12065fe0",
			"getVote()": "0242f351",
			"isVoting()": "1bbef399",
			"startVoting()": "1ec6b60a",
			"stopVoting()": "fab2f86b"
		}
	},
	"abi": [
		{
			"inputs": [],
			"stateMutability": "nonpayable",
			"type": "constructor"
		},
		{
			"anonymous": false,
			"inputs": [
				{
					"indexed": false,
					"internalType": "address",
					"name": "startedBy",
					"type": "address"
				}
			],
			"name": "StartVoting",
			"type": "event"
		},
		{
			"anonymous": false,
			"inputs": [
				{
					"indexed": false,
					"internalType": "address",
					"name": "stoppedBy",
					"type": "address"
				}
			],
			"name": "StopVoting",
			"type": "event"
		},
		{
			"inputs": [
				{
					"internalType": "address payable",
					"name": "_to",
					"type": "address"
				}
			],
			"name": "addVoteTo",
			"outputs": [],
			"stateMutability": "nonpayable",
			"type": "function"
		},
		{
			"inputs": [],
			"name": "balancedReceived",
			"outputs": [
				{
					"internalType": "uint256",
					"name": "",
					"type": "uint256"
				}
			],
			"stateMutability": "view",
			"type": "function"
		},
		{
			"inputs": [],
			"name": "getBalance",
			"outputs": [
				{
					"internalType": "uint256",
					"name": "",
					"type": "uint256"
				}
			],
			"stateMutability": "view",
			"type": "function"
		},
		{
			"inputs": [],
			"name": "getVote",
			"outputs": [],
			"stateMutability": "payable",
			"type": "function"
		},
		{
			"inputs": [],
			"name": "isVoting",
			"outputs": [
				{
					"internalType": "bool",
					"name": "",
					"type": "bool"
				}
			],
			"stateMutability": "view",
			"type": "function"
		},
		{
			"inputs": [],
			"name": "startVoting",
			"outputs": [
				{
					"internalType": "bool",
					"name": "",
					"type": "bool"
				}
			],
			"stateMutability": "nonpayable",
			"type": "function"
		},
		{
			"inputs": [],
			"name": "stopVoting",
			"outputs": [
				{
					"internalType": "bool",
					"name": "",
					"type": "bool"
				}
			],
			"stateMutability": "nonpayable",
			"type": "function"
		}
	]
}